{
  "contractName": "SayHello",
  "abi": [
    {
      "inputs": [],
      "name": "age",
      "outputs": [
        {
          "internalType": "uint16",
          "name": "",
          "type": "uint16"
        }
      ],
      "stateMutability": "view",
      "type": "function"
    },
    {
      "inputs": [],
      "name": "fname",
      "outputs": [
        {
          "internalType": "string",
          "name": "",
          "type": "string"
        }
      ],
      "stateMutability": "view",
      "type": "function"
    }
  ],
  "bytecode": "0x608060405234801561000f575f80fd5b506102838061001d5f395ff3fe608060405234801561000f575f80fd5b5060043610610034575f3560e01c8063262a9dff14610038578063e319990c14610056575b5f80fd5b610040610074565b60405161004d919061012d565b60405180910390f35b61005e610085565b60405161006b91906101d0565b60405180910390f35b5f8054906101000a900461ffff1681565b600180546100929061021d565b80601f01602080910402602001604051908101604052809291908181526020018280546100be9061021d565b80156101095780601f106100e057610100808354040283529160200191610109565b820191905f5260205f20905b8154815290600101906020018083116100ec57829003601f168201915b505050505081565b5f61ffff82169050919050565b61012781610111565b82525050565b5f6020820190506101405f83018461011e565b92915050565b5f81519050919050565b5f82825260208201905092915050565b5f5b8381101561017d578082015181840152602081019050610162565b5f8484015250505050565b5f601f19601f8301169050919050565b5f6101a282610146565b6101ac8185610150565b93506101bc818560208601610160565b6101c581610188565b840191505092915050565b5f6020820190508181035f8301526101e88184610198565b905092915050565b7f4e487b71000000000000000000000000000000000000000000000000000000005f52602260045260245ffd5b5f600282049050600182168061023457607f821691505b602082108103610247576102466101f0565b5b5091905056fea2646970667358221220f7dd33c5e4d32020f6cb2ab8b28fa522ad56c4c43fa932a68d3cd68a240e85d864736f6c63430008140033",
  "immutableReferences": {},
  "source": "contract SayHello{\n    uint16 public age;\n    string public fname;\n\n    \n}",
  "sourcePath": "/home/alpha/Projects/Blockchain_zero_hero/contracts/SayHello.sol",
  "compiler": {
    "name": "solc",
    "version": "0.8.20+commit.a1b79de6.Emscripten.clang"
  },
  "schemaVersion": "3.4.14",
  "updatedAt": "2023-08-04T15:15:51.573Z",
  "devdoc": {
    "kind": "dev",
    "methods": {},
    "version": 1
  },
  "userdoc": {
    "kind": "user",
    "methods": {},
    "version": 1
  }
}